{
    "_format": "hh-sol-artifact-1",
    "contractName": "LandMarketplace",
    "sourceName": "contracts/LandMarketplace.sol",
    "abi": [
        {
            "anonymous": false,
            "inputs": [
                {
                    "indexed": false,
                    "internalType": "uint256",
                    "name": "id",
                    "type": "uint256"
                },
                {
                    "indexed": false,
                    "internalType": "uint256",
                    "name": "price",
                    "type": "uint256"
                }
            ],
            "name": "LandListed",
            "type": "event"
        },
        {
            "anonymous": false,
            "inputs": [
                {
                    "indexed": false,
                    "internalType": "uint256",
                    "name": "id",
                    "type": "uint256"
                },
                {
                    "indexed": true,
                    "internalType": "address",
                    "name": "owner",
                    "type": "address"
                },
                {
                    "indexed": false,
                    "internalType": "string",
                    "name": "details",
                    "type": "string"
                }
            ],
            "name": "LandRegistered",
            "type": "event"
        },
        {
            "anonymous": false,
            "inputs": [
                {
                    "indexed": false,
                    "internalType": "uint256",
                    "name": "id",
                    "type": "uint256"
                },
                {
                    "indexed": true,
                    "internalType": "address",
                    "name": "newOwner",
                    "type": "address"
                }
            ],
            "name": "LandSold",
            "type": "event"
        },
        {
            "inputs": [
                {
                    "internalType": "uint256",
                    "name": "_landId",
                    "type": "uint256"
                }
            ],
            "name": "buy",
            "outputs": [],
            "stateMutability": "payable",
            "type": "function"
        },
        {
            "inputs": [
                {
                    "internalType": "uint256",
                    "name": "_landId",
                    "type": "uint256"
                }
            ],
            "name": "getLandData",
            "outputs": [
                {
                    "internalType": "address",
                    "name": "",
                    "type": "address"
                },
                {
                    "internalType": "string",
                    "name": "",
                    "type": "string"
                },
                {
                    "internalType": "uint256",
                    "name": "",
                    "type": "uint256"
                },
                {
                    "internalType": "bool",
                    "name": "",
                    "type": "bool"
                }
            ],
            "stateMutability": "view",
            "type": "function"
        },
        {
            "inputs": [
                {
                    "internalType": "address",
                    "name": "_owner",
                    "type": "address"
                }
            ],
            "name": "getLands",
            "outputs": [
                {
                    "internalType": "uint256[]",
                    "name": "",
                    "type": "uint256[]"
                }
            ],
            "stateMutability": "view",
            "type": "function"
        },
        {
            "inputs": [
                {
                    "internalType": "uint256",
                    "name": "",
                    "type": "uint256"
                }
            ],
            "name": "lands",
            "outputs": [
                {
                    "internalType": "uint256",
                    "name": "id",
                    "type": "uint256"
                },
                {
                    "internalType": "address",
                    "name": "owner",
                    "type": "address"
                },
                {
                    "internalType": "string",
                    "name": "details",
                    "type": "string"
                },
                {
                    "internalType": "uint256",
                    "name": "price",
                    "type": "uint256"
                },
                {
                    "internalType": "bool",
                    "name": "forSale",
                    "type": "bool"
                }
            ],
            "stateMutability": "view",
            "type": "function"
        },
        {
            "inputs": [],
            "name": "nextLandId",
            "outputs": [
                {
                    "internalType": "uint256",
                    "name": "",
                    "type": "uint256"
                }
            ],
            "stateMutability": "view",
            "type": "function"
        },
        {
            "inputs": [
                {
                    "internalType": "address",
                    "name": "",
                    "type": "address"
                },
                {
                    "internalType": "uint256",
                    "name": "",
                    "type": "uint256"
                }
            ],
            "name": "ownerLandIds",
            "outputs": [
                {
                    "internalType": "uint256",
                    "name": "",
                    "type": "uint256"
                }
            ],
            "stateMutability": "view",
            "type": "function"
        },
        {
            "inputs": [
                {
                    "internalType": "string",
                    "name": "_details",
                    "type": "string"
                }
            ],
            "name": "registerLand",
            "outputs": [],
            "stateMutability": "nonpayable",
            "type": "function"
        },
        {
            "inputs": [
                {
                    "internalType": "uint256",
                    "name": "_landId",
                    "type": "uint256"
                },
                {
                    "internalType": "uint256",
                    "name": "_price",
                    "type": "uint256"
                }
            ],
            "name": "sell",
            "outputs": [],
            "stateMutability": "nonpayable",
            "type": "function"
        }
    ],
    "bytecode": "0x608060405234801561001057600080fd5b5061162b806100206000396000f3fe60806040526004361061007b5760003560e01c8063d79875eb1161004e578063d79875eb14610165578063d96a094a1461018e578063e261f1e5146101aa578063fbed216b146101eb5761007b565b8063254c44f5146100805780635d51e5c3146100bd578063ab9e611f146100fa578063ad9a3eb01461013a575b600080fd5b34801561008c57600080fd5b506100a760048036038101906100a29190610b79565b610214565b6040516100b49190610c6e565b60405180910390f35b3480156100c957600080fd5b506100e460048036038101906100df9190610cbc565b6102ab565b6040516100f19190610d0b565b60405180910390f35b34801561010657600080fd5b50610121600480360381019061011c9190610d26565b6102dc565b6040516101319493929190610e0d565b60405180910390f35b34801561014657600080fd5b5061014f610440565b60405161015c9190610d0b565b60405180910390f35b34801561017157600080fd5b5061018c60048036038101906101879190610e59565b610446565b005b6101a860048036038101906101a39190610d26565b610572565b005b3480156101b657600080fd5b506101d160048036038101906101cc9190610d26565b61085d565b6040516101e2959493929190610e99565b60405180910390f35b3480156101f757600080fd5b50610212600480360381019061020d9190611028565b610948565b005b6060600260008373ffffffffffffffffffffffffffffffffffffffff1673ffffffffffffffffffffffffffffffffffffffff16815260200190815260200160002080548060200260200160405190810160405280929190818152602001828054801561029f57602002820191906000526020600020905b81548152602001906001019080831161028b575b50505050509050919050565b600260205281600052604060002081815481106102c757600080fd5b90600052602060002001600091509150505481565b600060606000806000600160008781526020019081526020016000206040518060a0016040529081600082015481526020016001820160009054906101000a900473ffffffffffffffffffffffffffffffffffffffff1673ffffffffffffffffffffffffffffffffffffffff1673ffffffffffffffffffffffffffffffffffffffff168152602001600282018054610373906110a0565b80601f016020809104026020016040519081016040528092919081815260200182805461039f906110a0565b80156103ec5780601f106103c1576101008083540402835291602001916103ec565b820191906000526020600020905b8154815290600101906020018083116103cf57829003601f168201915b50505050508152602001600382015481526020016004820160009054906101000a900460ff161515151581525050905080602001518160400151826060015183608001519450945094509450509193509193565b60005481565b813373ffffffffffffffffffffffffffffffffffffffff166001600083815260200190815260200160002060010160009054906101000a900473ffffffffffffffffffffffffffffffffffffffff1673ffffffffffffffffffffffffffffffffffffffff16146104eb576040517f08c379a00000000000000000000000000000000000000000000000000000000081526004016104e290611143565b60405180910390fd5b816001600085815260200190815260200160002060030181905550600180600085815260200190815260200160002060040160006101000a81548160ff0219169083151502179055507f2f9b23898410304c2b8c29547330c8ef08ad5f7c80b5204df939744931e275208383604051610565929190611163565b60405180910390a1505050565b806001600082815260200190815260200160002060040160009054906101000a900460ff166105d6576040517f08c379a00000000000000000000000000000000000000000000000000000000081526004016105cd906111d8565b60405180910390fd5b813373ffffffffffffffffffffffffffffffffffffffff166001600083815260200190815260200160002060010160009054906101000a900473ffffffffffffffffffffffffffffffffffffffff1673ffffffffffffffffffffffffffffffffffffffff160361067b576040517f08c379a000000000000000000000000000000000000000000000000000000000815260040161067290611244565b60405180910390fd5b6000600160008581526020019081526020016000209050806003015434146106d8576040517f08c379a00000000000000000000000000000000000000000000000000000000081526004016106cf906112b0565b60405180910390fd5b8060010160009054906101000a900473ffffffffffffffffffffffffffffffffffffffff1673ffffffffffffffffffffffffffffffffffffffff166108fc349081150290604051600060405180830381858888f19350505050158015610742573d6000803e3d6000fd5b50338160010160006101000a81548173ffffffffffffffffffffffffffffffffffffffff021916908373ffffffffffffffffffffffffffffffffffffffff16021790555060008160040160006101000a81548160ff021916908315150217905550600260003373ffffffffffffffffffffffffffffffffffffffff1673ffffffffffffffffffffffffffffffffffffffff1681526020019081526020016000208490806001815401808255809150506001900390600052602060002001600090919091909150553373ffffffffffffffffffffffffffffffffffffffff167fd5a9dce1f49553ba6b5ca64615f7cd5e06d6baab5d39ecb7f5257a9abb926fbb8560405161084f9190610d0b565b60405180910390a250505050565b60016020528060005260406000206000915090508060000154908060010160009054906101000a900473ffffffffffffffffffffffffffffffffffffffff16908060020180546108ac906110a0565b80601f01602080910402602001604051908101604052809291908181526020018280546108d8906110a0565b80156109255780601f106108fa57610100808354040283529160200191610925565b820191906000526020600020905b81548152906001019060200180831161090857829003601f168201915b5050505050908060030154908060040160009054906101000a900460ff16905085565b6040518060a0016040528060005481526020013373ffffffffffffffffffffffffffffffffffffffff168152602001828152602001600081526020016000151581525060016000805481526020019081526020016000206000820151816000015560208201518160010160006101000a81548173ffffffffffffffffffffffffffffffffffffffff021916908373ffffffffffffffffffffffffffffffffffffffff1602179055506040820151816002019081610a05919061147c565b506060820151816003015560808201518160040160006101000a81548160ff021916908315150217905550905050600260003373ffffffffffffffffffffffffffffffffffffffff1673ffffffffffffffffffffffffffffffffffffffff16815260200190815260200160002060005490806001815401808255809150506001900390600052602060002001600090919091909150553373ffffffffffffffffffffffffffffffffffffffff167f9c4ad74928fec1ee86181680df0e76bf575b79ea2a0347f7ed270884bdd26ad760005483604051610ae592919061154e565b60405180910390a2600080815480929190610aff906115ad565b919050555050565b6000604051905090565b600080fd5b600080fd5b600073ffffffffffffffffffffffffffffffffffffffff82169050919050565b6000610b4682610b1b565b9050919050565b610b5681610b3b565b8114610b6157600080fd5b50565b600081359050610b7381610b4d565b92915050565b600060208284031215610b8f57610b8e610b11565b5b6000610b9d84828501610b64565b91505092915050565b600081519050919050565b600082825260208201905092915050565b6000819050602082019050919050565b6000819050919050565b610be581610bd2565b82525050565b6000610bf78383610bdc565b60208301905092915050565b6000602082019050919050565b6000610c1b82610ba6565b610c258185610bb1565b9350610c3083610bc2565b8060005b83811015610c61578151610c488882610beb565b9750610c5383610c03565b925050600181019050610c34565b5085935050505092915050565b60006020820190508181036000830152610c888184610c10565b905092915050565b610c9981610bd2565b8114610ca457600080fd5b50565b600081359050610cb681610c90565b92915050565b60008060408385031215610cd357610cd2610b11565b5b6000610ce185828601610b64565b9250506020610cf285828601610ca7565b9150509250929050565b610d0581610bd2565b82525050565b6000602082019050610d206000830184610cfc565b92915050565b600060208284031215610d3c57610d3b610b11565b5b6000610d4a84828501610ca7565b91505092915050565b610d5c81610b3b565b82525050565b600081519050919050565b600082825260208201905092915050565b60005b83811015610d9c578082015181840152602081019050610d81565b60008484015250505050565b6000601f19601f8301169050919050565b6000610dc482610d62565b610dce8185610d6d565b9350610dde818560208601610d7e565b610de781610da8565b840191505092915050565b60008115159050919050565b610e0781610df2565b82525050565b6000608082019050610e226000830187610d53565b8181036020830152610e348186610db9565b9050610e436040830185610cfc565b610e506060830184610dfe565b95945050505050565b60008060408385031215610e7057610e6f610b11565b5b6000610e7e85828601610ca7565b9250506020610e8f85828601610ca7565b9150509250929050565b600060a082019050610eae6000830188610cfc565b610ebb6020830187610d53565b8181036040830152610ecd8186610db9565b9050610edc6060830185610cfc565b610ee96080830184610dfe565b9695505050505050565b600080fd5b600080fd5b7f4e487b7100000000000000000000000000000000000000000000000000000000600052604160045260246000fd5b610f3582610da8565b810181811067ffffffffffffffff82111715610f5457610f53610efd565b5b80604052505050565b6000610f67610b07565b9050610f738282610f2c565b919050565b600067ffffffffffffffff821115610f9357610f92610efd565b5b610f9c82610da8565b9050602081019050919050565b82818337600083830152505050565b6000610fcb610fc684610f78565b610f5d565b905082815260208101848484011115610fe757610fe6610ef8565b5b610ff2848285610fa9565b509392505050565b600082601f83011261100f5761100e610ef3565b5b813561101f848260208601610fb8565b91505092915050565b60006020828403121561103e5761103d610b11565b5b600082013567ffffffffffffffff81111561105c5761105b610b16565b5b61106884828501610ffa565b91505092915050565b7f4e487b7100000000000000000000000000000000000000000000000000000000600052602260045260246000fd5b600060028204905060018216806110b857607f821691505b6020821081036110cb576110ca611071565b5b50919050565b7f4f6e6c7920746865206f776e65722063616e2063616c6c20746869732066756e60008201527f6374696f6e000000000000000000000000000000000000000000000000000000602082015250565b600061112d602583610d6d565b9150611138826110d1565b604082019050919050565b6000602082019050818103600083015261115c81611120565b9050919050565b60006040820190506111786000830185610cfc565b6111856020830184610cfc565b9392505050565b7f4c616e64206973206e6f7420666f722073616c65000000000000000000000000600082015250565b60006111c2601483610d6d565b91506111cd8261118c565b602082019050919050565b600060208201905081810360008301526111f1816111b5565b9050919050565b7f596f7520616c7265616479206f776e2074686973206c616e6400000000000000600082015250565b600061122e601983610d6d565b9150611239826111f8565b602082019050919050565b6000602082019050818103600083015261125d81611221565b9050919050565b7f496e636f72726563742076616c75652073656e74000000000000000000000000600082015250565b600061129a601483610d6d565b91506112a582611264565b602082019050919050565b600060208201905081810360008301526112c98161128d565b9050919050565b60008190508160005260206000209050919050565b60006020601f8301049050919050565b600082821b905092915050565b6000600883026113327fffffffffffffffffffffffffffffffffffffffffffffffffffffffffffffffff826112f5565b61133c86836112f5565b95508019841693508086168417925050509392505050565b6000819050919050565b600061137961137461136f84610bd2565b611354565b610bd2565b9050919050565b6000819050919050565b6113938361135e565b6113a761139f82611380565b848454611302565b825550505050565b600090565b6113bc6113af565b6113c781848461138a565b505050565b5b818110156113eb576113e06000826113b4565b6001810190506113cd565b5050565b601f82111561143057611401816112d0565b61140a846112e5565b81016020851015611419578190505b61142d611425856112e5565b8301826113cc565b50505b505050565b600082821c905092915050565b600061145360001984600802611435565b1980831691505092915050565b600061146c8383611442565b9150826002028217905092915050565b61148582610d62565b67ffffffffffffffff81111561149e5761149d610efd565b5b6114a882546110a0565b6114b38282856113ef565b600060209050601f8311600181146114e657600084156114d4578287015190505b6114de8582611460565b865550611546565b601f1984166114f4866112d0565b60005b8281101561151c578489015182556001820191506020850194506020810190506114f7565b868310156115395784890151611535601f891682611442565b8355505b6001600288020188555050505b505050505050565b60006040820190506115636000830185610cfc565b81810360208301526115758184610db9565b90509392505050565b7f4e487b7100000000000000000000000000000000000000000000000000000000600052601160045260246000fd5b60006115b882610bd2565b91507fffffffffffffffffffffffffffffffffffffffffffffffffffffffffffffffff82036115ea576115e961157e565b5b60018201905091905056fea2646970667358221220f77975f216e8bc8e80121a481032068d6d166a97f67732d1df7ba080ac3c063664736f6c63430008180033",
    "linkReferences": {},
    "deployedLinkReferences": {}
}